:100000000C9462000C948A000C948A000C948A0070
:100010000C948A000C948A000C948A000C948A0038
:100020000C948A000C948A000C948A000C94890425
:100030000C948A000C948A000C948A000C948A0018
:100040000C943F040C948A000C940D040C94E70368
:100050000C948A000C948A000C948A000C948A00F8
:100060000C948A000C948A000000000023002600F3
:10007000290000000000240027002A0000000000E2
:10008000250028002B0004040404040404040202D4
:100090000202020203030303030301020408102007
:1000A0004080010204081020010204081020000012
:1000B0000008000201000003040700000000000027
:1000C00000008A0511241FBECFEFD8E0DEBFCDBFF0
:1000D00011E0A0E0B1E0EEE6F2E102C005900D9281
:1000E000A831B107D9F721E0A8E1B1E001C01D9224
:1000F000AB3EB207E1F710E0C2E6D0E004C02197C2
:10010000FE010E942F09C136D107C9F70E94E705F9
:100110000C9435090C940000CF92DF92EF92FF927D
:10012000DC01A03282E0B807D4F5A53BB10514F09C
:10013000A4EBB0E04091E90128E830E0241B31094C
:1001400047FD3395220F331F220F331F6901330FF1
:10015000EE08FF084091EA0128E532E0241B31094E
:1001600047FD3395220F331F220F331F032E000C40
:10017000440B550B2C193D094E095F09B7FF02C00E
:10018000B0E0A0E00E94470724EB30E040E050E000
:100190000E941D07C20ED31EE41EF51ED601E0917B
:1001A000E801EC3080F52091E90188E890E0821BBD
:1001B000910927FD9395880F991F880F991FA817FC
:1001C000B90784F02091EA0188E592E0821B910949
:1001D00027FD9395880F991F880F991FA817B907B6
:1001E0000CF4CD010297880F991F4FB7F8942E2F6A
:1001F00030E0F901EE0FFF1FE20FF31FED53FE4F4A
:10020000928381834FBFFF90EF90DF90CF9008954E
:10021000AF92BF92CF92DF92EF92FF920F931F9314
:10022000CF93DF936C017B018B01040F151FEB0152
:100230005E01AE18BF08C017D10759F06991D60109
:10024000ED91FC910190F081E02DC6010995892B7B
:1002500079F7C501DF91CF911F910F91FF90EF903A
:10026000DF90CF90BF90AF900895FC01538D448DE7
:10027000252F30E0842F90E0821B930B541710F051
:10028000CF96089501970895FC01918D828D98175E
:1002900061F0A28DAE0FBF2FB11D5D968C91928D36
:1002A0009F5F9F73928F90E008958FEF9FEF089567
:1002B000FC01918D828D981731F0828DE80FF11D30
:1002C000858D90E008958FEF9FEF0895FC01918D4B
:1002D000228D892F90E0805C9F4F821B91098F7344
:1002E0009927089586E291E00E94660121E0892B1A
:1002F00009F420E0822F089580E090E0892B29F016
:100300000E94720181110C9400000895FC01A48DDB
:10031000A80FB92FB11DA35ABF4F2C91848D90E027
:1003200001968F739927848FA689B7892C93A0890A
:10033000B1898C91837080648C93938D848D981394
:1003400006C00288F389E02D80818F7D8083089527
:10035000EF92FF920F931F93CF93DF93EC0181E015
:10036000888F9B8D8C8D98131AC0E889F9898081BC
:1003700085FF15C09FB7F894EE89FF896083E889EF
:10038000F98980818370806480839FBF81E090E0E1
:10039000DF91CF911F910F91FF90EF900895F62E6E
:1003A0000B8D10E00F5F1F4F0F731127E02E8C8D08
:1003B0008E110CC00FB607FCFACFE889F98980814D
:1003C00085FFF5CFCE010E948601F1CFEB8DEC0FBA
:1003D000FD2FF11DE35AFF4FF0829FB7F8940B8F6A
:1003E000EA89FB8980818062CFCFCF93DF93EC01D4
:1003F000888D8823B9F0AA89BB89E889F9898C910D
:1004000085FD03C0808186FD0DC00FB607FCF7CFC8
:100410008C9185FFF2CF808185FFEDCFCE010E94C8
:100420008601E9CFDF91CF91089590E0FC01E2557C
:10043000FF4F2491FC01E656FF4F3491FC01EA572F
:10044000FF4FE491EE23C9F0222339F0233001F16C
:10045000A8F4213019F1223029F1F0E0EE0FFF1F4E
:10046000E458FF4FA591B4918FB7F894EC916111C6
:1004700026C030953E233C938FBF08952730A9F0C6
:100480002830C9F0243049F7809180008F7D03C067
:10049000809180008F7780938000DFCF84B58F7745
:1004A00084BDDBCF84B58F7DFBCF8091B0008F778B
:1004B0008093B000D2CF8091B0008F7DF9CF3E2BDA
:1004C000DACFCF93DF9390E0FC01E656FF4F249103
:1004D0008A579F4FFC0184918823D1F090E0880FC8
:1004E000991FFC01EE58FF4FA591B491FC01E4580F
:1004F000FF4FC591D49161110EC09FB7F8948C91B4
:10050000E22FE0958E238C932881E223E8839FBF1E
:10051000DF91CF9108958FB7F894EC91E22BEC9393
:100520008FBFF6CF3FB7F8948091200190912101C1
:10053000A0912201B091230126B5A89B05C02F3FB1
:1005400019F00196A11DB11D3FBFBA2FA92F982FF9
:100550008827BC01CD01620F711D811D911D42E0F4
:10056000660F771F881F991F4A95D1F708958F92BC
:100570009F92AF92BF92CF92DF92EF92FF924B0188
:100580005C010E9492026B017C010E9492026C1934
:100590007D098E099F09683E734081059105A8F386
:1005A00021E0821A9108A108B10888EEC80E83E004
:1005B000D81EE11CF11C81149104A104B10429F797
:1005C000FF90EF90DF90CF90BF90AF909F908F9073
:1005D0000895FC0101900020E9F73197AF01481B15
:1005E000590BBC0186E291E00C9408018F929F9216
:1005F000AF92BF920F931F93CF93DF93CDB7DEB728
:10060000A1970FB6F894DEBF0FBECDBF19A242303E
:1006100008F44AE08E010F5D1F4F842E912CB12CFF
:10062000A12CA50194010E944F07E62FB901CA0130
:10063000EA30F4F4E05DD801EE938D01232B242BF6
:10064000252B79F790E080E0109719F0CD010E94FA
:10065000E902A1960FB6F894DEBF0FBECDBFDF91C1
:10066000CF911F910F91BF90AF909F908F90089561
:10067000E95CE1CFCF92DF92EF92FF92CF93DF93CD
:100680006B017C016DE286E291E00E94A801EC0121
:1006900066277727CB016C197D098E099F094AE0EF
:1006A0000E94F6028C0F9D1FDF91CF91FF90EF907B
:1006B000DF90CF9008950F931F9360E087E00E9432
:1006C000150283E090E00197F1F761E087E00E9476
:1006D000150283E290E00197F1F7E0EAF0E064911F
:1006E000ECE8F0E0E491F0E0EE0FFF1FE859FF4F77
:1006F0008591949100E412E42FE030E0462F0E94AF
:100700004505611571058105910529F06F5F7F4FE2
:100710008F4F9F4F9F700E942A0820E030E044EEE8
:1007200051E40E94800720E030E040E05FE30E9457
:10073000B6080E94F20765367105A4F57093190199
:10074000609318018091180190911901C3978CF161
:1007500061E088E00E94150260E089E00E941502D5
:100760006091240170912501072E000C880B990BD4
:1007700097FF25C00E943A0382E191E00E94E902BE
:100780006091180170911901072E000C880B990BCC
:1007900097FF19C00E943A0384E191E01F910F91E5
:1007A0000C94E90284E690E090931901809318017B
:1007B000C9CF60E088E00E94150261E0CECF4AE038
:1007C0000E94F602D9CF4AE00E94F602E5CF1F92BE
:1007D0000F920FB60F9211242F933F934F935F9375
:1007E0006F937F938F939F93AF93BF93EF93FF93F9
:1007F00086E291E00E948601FF91EF91BF91AF9157
:100800009F918F917F916F915F914F913F912F9128
:100810000F900FBE0F901F9018951F920F920FB65A
:100820000F9211242F938F939F93EF93FF93E09157
:100830003601F09137018081E0913C01F0913D015A
:1008400082FD1BC0908180913F018F5F8F7320914B
:100850004001821741F0E0913F01F0E0EA5DFE4F78
:10086000958F80933F01FF91EF919F918F912F91F1
:100870000F900FBE0F901F9018958081F4CF1F929C
:100880000F920FB60F9211242F933F938F939F9344
:10089000AF93BF9380911C0190911D01A0911E0107
:1008A000B0911F0130911B0123E0230F2D3758F524
:1008B0000196A11DB11D20931B0180931C019093F3
:1008C0001D01A0931E01B0931F0180912001909102
:1008D0002101A0912201B09123010196A11DB11D1A
:1008E0008093200190932101A0932201B0932301D2
:1008F000BF91AF919F918F913F912F910F900FBE1C
:100900000F901F90189526E8230F0296A11DB11D88
:10091000D2CF1F920F920FB60F9211242F933F93B5
:100920004F935F936F937F938F939F93AF93BF93F7
:10093000CF93DF93EF93FF9380911A01C091E7016A
:10094000D0E087FF24C0109285001092840080912F
:100950001A018F5F80931A0180911A01082E000CF2
:10096000990B8C179D0724F480911A018C30C4F1E7
:100970008091840090918500049680349C4908F40D
:100980007AC08091840090918500049676C0809111
:100990001A01082E000C990B8C179D07C4F6E091E4
:1009A0001A018E2FEE0F990BFC01EE0FFF1FE80FBF
:1009B000F91FED53FE4F808186FFC9CFE0911A01E8
:1009C0008E2FEE0F990BFC01EE0FFF1FE80FF91FA2
:1009D000ED53FE4F808160E08F730E941502B7CF08
:1009E0002091840030918500E0911A018E2FEE0F46
:1009F000990BFC01EE0FFF1FE80FF91FED53FE4F9F
:100A000081819281820F931F909389008093880047
:100A1000E0911A018E2FEE0F990BFC01EE0FFF1FD4
:100A2000E80FF91FED53FE4F808186FF11C0E09162
:100A30001A018E2FEE0F990BFC01EE0FFF1FE80F2E
:100A4000F91FED53FE4F808161E08F730E94150204
:100A5000FF91EF91DF91CF91BF91AF919F918F91D6
:100A60007F916F915F914F913F912F910F900FBEAA
:100A70000F901F90189580E49CE9909389008093D3
:100A800088008FEF80931A01E3CFCF92DF92EF922D
:100A9000FF920F931F93E82FF92F05C00150110902
:100AA0002109310961F1908196239417B9F305C0AA
:100AB000015011092109310911F1908196239413F4
:100AC000F7CFC12CD12CE12CF12C0AC08FEFC81A22
:100AD000D80AE80AF80A0C151D052E053F0579F01D
:100AE00080818623841791F36C2D7D2D8E2D9F2D73
:100AF0001F910F91FF90EF90DF90CF90089560E0ED
:100B000070E080E090E01F910F91FF90EF90DF90F8
:100B1000CF900895109229011092280188EE93E059
:100B2000A0E0B0E080932A0190932B01A0932C01C8
:100B3000B0932D0184E091E09093270180932601EA
:100B400085EC90E0909333018093320184EC90E047
:100B5000909335018093340180EC90E090933701BD
:100B60008093360181EC90E09093390180933801B5
:100B700082EC90E090933B0180933A0186EC90E008
:100B800090933D0180933C0110923F0110924001EF
:100B900010924101109242018091E7018C3098F44B
:100BA00091E0980F9093E7018093E80190E0FC01B9
:100BB000EE0FFF1FE80FF91FED53FE4F88EB9BE090
:100BC0009283818308958FEF8093E801089578944C
:100BD00084B5826084BD84B5816084BD85B5826042
:100BE00085BD85B5816085BD80916E0081608093F3
:100BF0006E0010928100809181008260809381005C
:100C0000809181008160809381008091800081606B
:100C1000809380008091B10084608093B1008091C6
:100C2000B00081608093B00080917A0084608093EE
:100C30007A0080917A00826080937A0080917A00B5
:100C4000816080937A0080917A00806880937A0036
:100C50001092C100E0913601F091370182E080836B
:100C6000E0913201F09133011082E0913401F09172
:100C700035018FEC808310923E01E0913A01F091B2
:100C80003B0186E08083E0913801F0913901808159
:100C900080618083E0913801F09139018081886022
:100CA0008083E0913801F0913901808180688083F0
:100CB000E0913801F091390180818F7D80838091AE
:100CC000E8018C3008F051C061E082E00E946102CE
:100CD0008091E801282F30E0F901EE0FFF1FE20FAD
:100CE000F31FED53FE4F9081907C926090831092A1
:100CF000E9011092EA012CE0622F0E942309829FF1
:100D0000B001112430E020E0AB01420F531FFA0183
:100D1000EE0FFF1FE40FF51FED53FE4F908196FD80
:100D200016C02F5F3F4F2C30310571F781110FC076
:100D30001092800082E080938100109285001092D2
:100D40008400B19A80916F00826080936F00E0917F
:100D5000E8018E2F90E0FC01EE0FFF1FE80FF91F56
:100D6000ED53FE4F80818064808360E086E00E94C6
:100D7000610261E087E00E94610261E089E00E9417
:100D8000610261E088E00E94610264E670E080E058
:100D900090E00E94B702C1E0D0E004EB10E080E0F8
:100DA000E82E80E0F82ED0932501C0932401809195
:100DB000240190912501843B9105A4F40E948C00AC
:100DC00060E570E080E090E00E94B7020E945B0363
:100DD00080912401909125010196909325018093A3
:100DE0002401E5CF10932501009324018091240173
:100DF0009091250182309105A4F00E948C0060E55D
:100E000070E080E090E00E94B7020E945B03809156
:100E1000240190912501019790932501809324014D
:100E2000E5CFE114F10409F4BECF0E9472018823DA
:100E300009F4B9CF0E940000B6CF052E97FB1EF42F
:100E400000940E94340757FD07D00E944F0707FC0B
:100E500003D04EF40C94340750954095309521956D
:100E60003F4F4F4F5F4F08959095809570956195D6
:100E70007F4F8F4F9F4F08950E947107A59F900D40
:100E8000B49F900DA49F800D911D11240895B7FF6C
:100E90000C943C070E943C07821B930B0895A1E22F
:100EA0001A2EAA1BBB1BFD010DC0AA1FBB1FEE1FE4
:100EB000FF1FA217B307E407F50720F0A21BB30B2F
:100EC000E40BF50B661F771F881F991F1A9469F7AB
:100ED00060957095809590959B01AC01BD01CF0107
:100EE0000895A29FB001B39FC001A39F700D811D03
:100EF0001124911DB29F700D811D1124911D089523
:100F00000E9494070C947C080E94750858F00E9477
:100F10006E0840F029F45F3F29F00C9465085111E8
:100F20000C94B0080C946B080E948D0868F3992308
:100F3000B1F3552391F3951B550BBB27AA276217D5
:100F40007307840738F09F5F5F4F220F331F441FE2
:100F5000AA1FA9F335D00E2E3AF0E0E832D0915016
:100F60005040E695001CCAF72BD0FE2F29D0660F03
:100F7000771F881FBB1F261737074807AB07B0E846
:100F800009F0BB0B802DBF01FF2793585F4F3AF04C
:100F90009E3F510578F00C9465080C94B0085F3FB3
:100FA000E4F3983ED4F3869577956795B795F795D2
:100FB0009F5FC9F7880F911D9695879597F90895BA
:100FC000E1E0660F771F881FBB1F62177307840756
:100FD000BA0720F0621B730B840BBA0BEE1F88F765
:100FE000E09508950E94F9076894B1110C94B00837
:100FF00008950E94950888F09F5798F0B92F992777
:10100000B751B0F0E1F0660F771F881F991F1AF0F3
:10101000BA95C9F714C0B13091F00E94AF08B1E0A1
:1010200008950C94AF08672F782F8827B85F39F0A0
:10103000B93FCCF3869577956795B395D9F73EF48C
:1010400090958095709561957F4F8F4F9F4F089534
:10105000E89409C097FB3EF4909580957095619552
:101060007F4F8F4F9F4F9923A9F0F92F96E9BB2708
:101070009395F695879577956795B795F111F8CF84
:10108000FAF4BB0F11F460FF1BC06F5F7F4F8F4FEF
:101090009F4F16C0882311F096E911C0772321F0E5
:1010A0009EE8872F762F05C0662371F096E8862F7D
:1010B00070E060E02AF09A95660F771F881FDAF7D4
:1010C000880F9695879597F9089597F99F6780E817
:1010D00070E060E008959FEF80EC089500240A948A
:1010E0001616170618060906089500240A94121603
:1010F0001306140605060895092E0394000C11F436
:10110000882352F0BB0F40F4BF2B11F460FF04C0E2
:101110006F5F7F4F8F4F9F4F089557FD9058440F3B
:10112000551F59F05F3F71F04795880F97FB991F46
:1011300061F09F3F79F08795089512161306140603
:10114000551FF2CF4695F1DF08C016161706180690
:10115000991FF1CF86957105610508940895E8946B
:10116000BB2766277727CB0197F908950E94C90806
:101170000C947C080E946E0838F00E94750820F0DC
:10118000952311F00C9465080C946B0811240C94B1
:10119000B0080E948D0870F3959FC1F3950F50E041
:1011A000551F629FF001729FBB27F00DB11D639F19
:1011B000AA27F00DB11DAA1F649F6627B00DA11DBF
:1011C000661F829F2227B00DA11D621F739FB00D65
:1011D000A11D621F839FA00D611D221F749F3327D5
:1011E000A00D611D231F849F600D211D822F762F6E
:1011F0006A2F11249F5750409AF0F1F088234AF04B
:10120000EE0FFF1FBB1F661F771F881F91505040B6
:10121000A9F79E3F510580F00C9465080C94B00826
:101220005F3FE4F3983ED4F3869577956795B7953D
:10123000F795E7959F5FC1F7FE2B880F911D969557
:10124000879597F90895991B79E004C0991F96171F
:1012500008F0961B881F7A95C9F780950895EE0FC0
:0E126000FF1F0590F491E02D0994F894FFCF44
:10126E0000000000A80108013501F50166014401E6
:08127E00580120000D0A0000D8
:00000001FF
